{
    "_format": "hh-sol-artifact-1",
    "contractName": "BuyGadget",
    "sourceName": "contracts/BuyGadget.sol",
    "abi": [
        {
            "anonymous": false,
            "inputs": [
                {
                    "indexed": true,
                    "internalType": "uint256",
                    "name": "gadgetId",
                    "type": "uint256"
                },
                {
                    "indexed": true,
                    "internalType": "address",
                    "name": "buyer",
                    "type": "address"
                },
                {
                    "indexed": false,
                    "internalType": "uint256",
                    "name": "price",
                    "type": "uint256"
                }
            ],
            "name": "GadgetBought",
            "type": "event"
        },
        {
            "inputs": [],
            "name": "buyGadget",
            "outputs": [],
            "stateMutability": "payable",
            "type": "function"
        },
        {
            "inputs": [],
            "name": "gadgetCounter",
            "outputs": [
                {
                    "internalType": "uint256",
                    "name": "",
                    "type": "uint256"
                }
            ],
            "stateMutability": "view",
            "type": "function"
        },
        {
            "inputs": [
                {
                    "internalType": "uint256",
                    "name": "",
                    "type": "uint256"
                }
            ],
            "name": "gadgets",
            "outputs": [
                {
                    "internalType": "address",
                    "name": "buyer",
                    "type": "address"
                },
                {
                    "internalType": "uint256",
                    "name": "price",
                    "type": "uint256"
                },
                {
                    "internalType": "bool",
                    "name": "isPurchased",
                    "type": "bool"
                }
            ],
            "stateMutability": "view",
            "type": "function"
        }
    ],
    "bytecode": "0x608060405234801561001057600080fd5b506104e8806100206000396000f3fe6080604052600436106100345760003560e01c806354a751e4146100395780635ce8bfef146100435780637822fddf14610082575b600080fd5b6100416100ad565b005b34801561004f57600080fd5b5061006a600480360381019061006591906102ae565b610216565b60405161007993929190610346565b60405180910390f35b34801561008e57600080fd5b5061009761026d565b6040516100a4919061037d565b60405180910390f35b600034116100f0576040517f08c379a00000000000000000000000000000000000000000000000000000000081526004016100e79061041b565b60405180910390fd5b60405180606001604052803373ffffffffffffffffffffffffffffffffffffffff16815260200134815260200160011515815250600160008054815260200190815260200160002060008201518160000160006101000a81548173ffffffffffffffffffffffffffffffffffffffff021916908373ffffffffffffffffffffffffffffffffffffffff1602179055506020820151816001015560408201518160020160006101000a81548160ff0219169083151502179055509050503373ffffffffffffffffffffffffffffffffffffffff166000547fdfcb9c673b1d4b46bb49b82de6cd92fd9f4c49807e32a944c7db41a6bd285382346040516101f5919061037d565b60405180910390a360008081548092919061020f9061046a565b9190505550565b60016020528060005260406000206000915090508060000160009054906101000a900473ffffffffffffffffffffffffffffffffffffffff16908060010154908060020160009054906101000a900460ff16905083565b60005481565b600080fd5b6000819050919050565b61028b81610278565b811461029657600080fd5b50565b6000813590506102a881610282565b92915050565b6000602082840312156102c4576102c3610273565b5b60006102d284828501610299565b91505092915050565b600073ffffffffffffffffffffffffffffffffffffffff82169050919050565b6000610306826102db565b9050919050565b610316816102fb565b82525050565b61032581610278565b82525050565b60008115159050919050565b6103408161032b565b82525050565b600060608201905061035b600083018661030d565b610368602083018561031c565b6103756040830184610337565b949350505050565b6000602082019050610392600083018461031c565b92915050565b600082825260208201905092915050565b7f50726963652073686f756c642062652067726561746572207468616e207a657260008201527f6f00000000000000000000000000000000000000000000000000000000000000602082015250565b6000610405602183610398565b9150610410826103a9565b604082019050919050565b60006020820190508181036000830152610434816103f8565b9050919050565b7f4e487b7100000000000000000000000000000000000000000000000000000000600052601160045260246000fd5b600061047582610278565b91507fffffffffffffffffffffffffffffffffffffffffffffffffffffffffffffffff82036104a7576104a661043b565b5b60018201905091905056fea2646970667358221220f5c86f0ec783289b17a7b28b9044ec5fda238c07007e30a94dd2daeb6841851964736f6c63430008180033",
    "linkReferences": {},
    "deployedLinkReferences": {}
}